:030023000208557B
:07085500C0E0C0D075D0081F
:10085C00309820AF99C298E5102408FDE433FCE5EC
:10086C00126D7001EC600CAE120512EE54072421CF
:10087C00F8A60F30991BC299E51165136011AF11E1
:10088C000511EF54072429F8E6F599C2018002C23C
:01089C00005B
:05089D00D0D0D0E032D4
:1008E400200122200005D2008F9922C2ACAE13054C
:1008F40013EE54072429F8A607E51365115407706D
:0609040002D201D2AC2278
:10099400AD07BD0A082001FD7F0D1208E42001FD0A
:0609A400AF051208E42279
:10097D00E512651060FAC2ACAF100510EF540724F4
:06098D0021F8E6FFD2ACE8
:010993002241
:10090A00E4F510F512F511F513C200C2014389206E
:0E091A00759850758DFD758BFDD28ED2AC2276
:0609F60012090AD2AF2233
:0B094500120950C290D2917FA47E06E0
:100950007C007D0A120800EF1F70011E144E70F714
:010960002274
:10096100AB07AA060BBB00010AEB1B70011A144A64
:0C09710060097F847E0312095080EE2292
:1008A2001209F61209CEEF4E60091209DCEF4E6012
:1008B20002802A1209CEEF64014E700C1209DCEF9D
:1008C2004E70051209BC80DB1209CEEF4E700E127B
:1008D20009DCEF64014E700512092880C61209AACC
:0208E20080C1D3
:0E09CE00E5907E0030E0047F0180027F002271
:0E09DC00E5907E0030E1047F0180027F002262
:1009AA00D2907F147E05120945C2917F147E0002FF
:0209BA000961D1
:1009BC00D2907FA47E06120945C2917F147E00025C
:0209CC000961BF
:10092800D2907F147E05120950C290D2917F147E16
:0D09380005120950C2917F147E0002096172
:030000000209EA08
:0C09EA00787FE4F6D8FD7581300208A289
:10080000BC000BBE0029EF8DF084FFADF022E4CCDC
:10081000F875F008EF2FFFEE33FEEC33FCEE9DECA5
:10082000984005FCEE9DFE0FD5F0E9E4CEFD22EDEB
:10083000F8F5F0EE8420D21CFEADF075F008EF2F35
:10084000FFED33FD4007985006D5F0F222C398FD26
:050850000FD5F0EA22C3
:00000001FF
